:020000040800F2
:10000000001000206D090008C7580008C7580008F4
:10001000C7580008C7580008C7580008C758000844
:10002000C7580008C7580008C7580008C758000834
:10003000C7580008C7580008C7580008C758000824
:10004000C7580008C7580008C7580008C758000814
:10005000C7580008C7580008C7580008C758000804
:10006000C7580008C7580008C7580008B10700085B
:1000700019580008C7580008C7580008C758000892
:10008000C7580008C7580008C7580008C7580008D4
:10009000C75800086D110008C7580008C758000865
:1000A000C7580008AD0D00088D0D0008C75800089E
:1000B000C7580008C7580008C7580008C7580008A4
:1000C000C7580008C7580008C7580008C758000894
:1000D000C7580008C7580008C7580008C758000884
:1000E000C7580008C7580008C7580008C758000874
:1000F000C7580008C7580008C7580008C758000864
:10010000C7580008C7580008C7580008C758000853
:10011000C7580008C7580008C7580008C758000843
:10012000C7580008C7580008C7580008C758000833
:10013000C7580008C7580008C7580008C758000823
:10014000C7580008C7580008C75800084F6C000877
:10015000C7580008C7580008C7580008C758000803
:10016000C7580008C7580008C7580008C7580008F3
:10017000013800D0FCE770470348044B834202D0AB
:10018000034B03B118477047641600206416002023
:1001900000000000064B0749C91A891048BF013109
:1001A000491003D0044B0BB101481847704700BFFA
:1001B00064160020641600200000000010B5064CF4
:1001C000237843B9FFF7D8FF044B13B10448AFF3CA
:1001D00000800123237010BD3415002000000000B2
:1001E000A078000808B5054B1BB105490548AFF3D9
:1001F0000080BDE80840FFF7CDBF00BF0000000051
:1002000000100020A0780008A3F5803A704700BFD6
:10021000174B002B08BF134B9D46FFF7F5FF00213E
:100220008B460F461348144A121A05F019FE0E4B5E
:10023000002B00D098470D4B002B00D09847002092
:10024000002104000D000D48002802D00C48AFF337
:10025000008004F0A5FD2000290005F02FFA04F02D
:10026000E9FB00BF000008000000000000000000E3
:100270000010002000100020B81500200000000031
:100280000000000008B500F09BF82F4804F05EFD68
:100290000121572001F02CFB01213A2001F028FB1D
:1002A000002304220121022002F0D8FE00230422B0
:1002B0000321022002F0D2FE02210023084601227F
:1002C00002F0CCFE012304220721002002F0C6FE2A
:1002D00001221E4B5A60A3F500535A6812F0010226
:1002E000FBD140F201419960DA604FF4486101228C
:1002F0001A61196302215961154B5A60A3F58053A5
:100300005A68D207FCD505229A63124B124A134849
:10031000C3F8CC244FF00212C3F8C424A2F58032F3
:10032000C3F8C8241C22C3F8B42404F00FFD00F065
:10033000FFF80B4B187020B10A48BDE8084004F0E4
:1003400005BD0948F9E700BFB86C000800200A5055
:1003500000100A5000C0035002000300CC6C0008DB
:1003600035150020E16C0008056D000810B500F09F
:1003700077F8104B1B78ABB105F01EFAC0B105F051
:10038000F7F9044600F0BCF8DFED0B7A20EE270AFF
:10039000FDEEC07A2146BDE8104017EE902A0748CE
:1003A00004F0BABC4FF47A70BDE8104004F034B9E0
:1003B00010BD00BF3515002000401C46256D00080B
:1003C000002370B5214C1946206892B00222806843
:1003D00004F042FB0023206802221946406804F022
:1003E0003BFB01AA15461A4B03F118061446186880
:1003F0005968083303C4B3422246F7D118681B2258
:100400002060144C2946206805F015FB206803F095
:10041000D5FA08AA1546104B03F1200614461868B1
:100420005968083303C4B3422246F7D11868998843
:100430009B7926222060A180A3712946002005F027
:10044000FAFA064804F082FC12B070BD04160020CF
:100450007F6D0008E01500209B6D00082E6D0008E0
:1004600038B5134C237823B1124804F055FC00230F
:10047000237004F049FC024640B200280CDD0E4C0B
:100480000D28237801D00A2807D100250B490C48F4
:10049000CD5404F041FC257038BD4E2B9FBF074959
:1004A000CA5401332370BDE8384004F047BC00BF94
:1004B00058160020D36D000836150020371500208F
:1004C000C26D0008074B9A6C120609D458649A6CE6
:1004D0009106FCD59A6C1206FCD5D86BC0B2704759
:1004E000DA6BF0E700000A508022014B1A64704773
:1004F00000D003508022014B1A64704700E0035083
:10050000C0F39113020248BFA3F5802307EE903A8F
:100510009FED057AF8EEE77A9FED040A67EE877A99
:1005200087EE800A704700BF00007A440000204A2E
:100530002DE9F0414FF4FA70FFF7D6FF04F06CF8A4
:100540004D4804F003FC0F2005F0E9F818B16FF0F6
:100550007F43984204D1494804F0F8FB00207BE037
:10056000474804F0F3FB0021082005F0B1F84FF4F0
:10057000FA7004F051F8434804F0E8FB4FF400012E
:10058000152005F0A5F8642004F046F83E4804F074
:10059000DDFB4FF4C011102005F09AF8C82004F0DC
:1005A0003BF80021092005F093F8C82004F034F846
:1005B0000021142005F08CF8642004F02DF80021AF
:1005C000092005F085F84FF4FA7004F025F864244A
:1005D000012005F0A4F8030247D5102005F09FF88C
:1005E0000546152005F09BF80446C0F38156C0F37C
:1005F0000148264804F0AAFB2946254804F08CFB54
:10060000C5F301572146234804F086FB39462248AA
:1006100004F082FB012F0CBF2048214804F096FB18
:100620003146204804F078FB022E0CBF1E481F48BC
:1006300004F08CFB41461E4804F06EFBB8F1000F3D
:100640000CD11C4804F082FB012F0CD1022E0AD1E0
:10065000194804F07BFB0120BDE8F08141461748B2
:1006600004F05AFBF0E71648F3E70A2003F0D4FF42
:10067000013CADD113486FE7D66D0008F86D000856
:10068000096E00081C6E00084B6E00086E6E0008B4
:10069000856E0008986E0008AB6E0008B66E000804
:1006A000C66E0008DC6E0008E66E0008F56E0008F5
:1006B0000A6F0008146F0008256F00081E6F0008FD
:1006C000446F0008726F0008064B1B681A7A022AF2
:1006D00004D812B11B68044A13607047032AF9D08A
:1006E000704700BFB81500201810002070B5A2B0E8
:1006F0001C2200210CA805F0B3FB224B00240B9315
:100700004FF4E1330D9302238DF839301E4BCDE9C0
:1007100002440F9305238DF8423006238DF84430B0
:100720004FF470230494019313AD01AE0FCE0FC5A7
:10073000164BCDE907442B60154B0994069318AD71
:1007400006AE0FCE0FC52022124B13482B60134B61
:1007500013A91D93124B2094CDE91E23114B0BAA14
:100760002193114B03F042F9044618B1AE210F4812
:1007700005F0B7F800214FF4E13005F096F8204677
:1007800022B070BDA8750008987500083C00015B98
:1007900001000F004400015BD010002087150020ED
:1007A00001010100CC1500201C100020816F000801
:1007B000014803F041BA00BFD010002008B504483A
:1007C00006F0A9F904F0FFFFBDE8084000F008B802
:1007D00090750008014806F09EB900BF90750008AA
:1007E0002DE9F047534E96B0354609AC0FCD0FC4F6
:1007F0002B6806F1140523600EAC0FCD0FC495E8ED
:100800000F00DFF8488184E80F004B4806F083F9B9
:10081000404606F080F94FF48073484FADF83C3005
:10082000474B38460B9309A90EAB0D9302F0DCFA47
:1008300004210225B6F834A00DEB01000122ADF829
:1008400004A000F005FAB6F836900022012102A8B3
:10085000ADF8089000F0FCF9368F0122042103A8BE
:10086000ADF80C6000F0F4F90122042104A8354C25
:10087000ADF8105000F0ECF9334B4FF44870C4F869
:10088000C8344FF00213C4F8C43403F58033C4F8FD
:10089000CC341C23C4F8B43403F010FF08A8ADF81E
:1008A000205000F045FA142003F008FF08A8ADF826
:1008B000205000F00FFA232003F000FF08A8ADF845
:1008C000205000F035FAB921384605F086F808A81E
:1008D000ADF8205000F0FEF9002205A81146ADF851
:1008E00014A000F0B5F9002206A81146ADF8189042
:1008F00000F0AEF90122002107A8ADF81C6000F05D
:10090000A7F90122002108A8ADF8205000F0A0F9B5
:10091000384601F073FF00234046C4F8B434C4F8ED
:10092000C834C4F8C434C4F8CC3406F0F7F816B0B0
:10093000BDE8F087B86F00089075000800000A5005
:10094000E070720000C003500200010094750008BE
:100950000348044A0449121A921004F0B5BF00BFBC
:100960007001000870010008B815002008B5154B8B
:1009700083F30A8800F030F8FFF7EAFF124B1349BF
:100980008B4212D30020124B12498B4218D3FFF72F
:100990003FFC186850F82240586840F82240013265
:1009A00098688242F5D30C33EAE70022F8E71C6826
:1009B00044F8220001325C68A242F8D30833E4E72D
:1009C0000022F8E700000020A8780008B4780008AA
:1009D000B4780008B47800084FF48041124B134AF1
:1009E00070B59A60D3F88820114D42F47002C3F8B4
:1009F0008820104A05F5005491664FF0FF322266B8
:100A00000D4A62660222C3F8D020BFF34F8FBFF3B6
:100A10006F8F4FF44036002002F07EFF0020E6602A
:100A200002F048FF2E6170BD00ED00E000000008FC
:100A30000080004400900050F7FF3700014B186021
:100A4000704700BFE8150020054B1860054B1B6F71
:100A500003F00703032B01D105F08CBC704700BFE6
:100A6000F01500200080005038B504460D4601B155
:100A700018B94521044804F034FF236813B92B60EA
:100A8000256038BD1C46F8E7F26F000810B5044633
:100A900018B95621044804F024FF206818B10368EF
:100AA00023600023036010BDF26F0008002307B528
:100AB0002948019306F02FF84FF4407301220421D6
:100AC0006846ADF8003000F0C3F80122234B052042
:100AD000C3F8442401A906F019F8002839D1204BA5
:100AE000D3F8F02042F00102C3F8F020D3F8FC2044
:100AF00042F08072C3F8FC201A4AA3F55D431A60E5
:100B0000019B194A03F5D52303F2FC43B3FBF2F32F
:100B1000164A013B13610223C2F8F0304FF4807390
:100B2000C2F804334FF06043114AC3F8B02F114AA2
:100B3000C3F8802ED3F8002E42F48072C3F8002E42
:100B4000FF2283F82020D3F8002E22F48072C3F80D
:100B5000002E03B05DF804FB9075000800D0035030
:100B600000ED00E0FF030040F8590D00000004E034
:100B700055CEACC5090001004FF06043D3F8802E7C
:100B800030B5D20715D501240B4D8440D5F8FC2093
:100B900042F08072C5F8FC20D3F8002E2243C3F83F
:100BA000002E53F82020002AF0D003F82010002057
:100BB00030BD1120FCE700BF00ED00E02DE9F04161
:100BC00004460C254FF00108124E0CB314F001003E
:100BD0000BD0002024F0010405FB00625768002FB1
:100BE000F3D09168C0B2B847EFE722460130202821
:100BF0004FEA520201D0D307F8D508FA00F20F28C5
:100C000024EA0204E8D9103805FB0062B432E5E7B3
:100C1000BDE8F081EC10002008B50C4805F07BFF22
:100C2000192002F061FE28B1192002F075FE19208A
:100C300002F040FE1A2002F057FE28B11A2002F0FE
:100C40006BFE1A2002F036FE002008BD90750008E9
:100C50002DE9F0410E461746044638B993211A484B
:100C600004F03FFE22252846BDE8F0810F290CD86C
:100C7000037883B1013BDBB2022B06D8134A32F86A
:100C800013306278D340DB0707D497210E4804F075
:100C900028FE2125E7E7FF23F3E70D4BD3F8105398
:100CA0002DB19B21084804F01CFE0225DBE705F06E
:100CB00027FF80463A462046314602F0A9FB4046CF
:100CC00005F019FFCFE700BF457000089C700008D1
:100CD00000C0035038B5044628B91348E42104F095
:100CE00000FE222038BD037883B1013BDBB2022B2A
:100CF00006D80E4A32F813306278D340DB0707D4A7
:100D00000948E82104F0EDFD2120EBE7FF23F3E79C
:100D100005F0F6FE0546204605F002FC284605F0E3
:100D2000EAFE0020DEE700BF457000089C70000866
:100D300038B5044628B91348FC2104F0D2FD22201E
:100D400038BD03788BB1013BDBB2022B06D80E4ACB
:100D500032F813306278D340DB0708D409484FF4E7
:100D6000807104F0BEFD2120EAE7FF23F2E705F0E1
:100D7000C7FE0546204602F015FB284605F0BBFEDF
:100D80000020DDE7457000089C70000808B502F0FF
:100D900035FB054B00F0553020F05020C3F82004FF
:100DA000BDE80840FFF70ABF00E0035008B502F0B5
:100DB00025FB054B00F0AA3020F0A020C3F820044A
:100DC000BDE80840FFF7FABE00E003502DE9F04F00
:100DD0009A46564B85B01B7806460F461546DDF8F9
:100DE0003C909DF844B0DDF85080002B00F09780D7
:100DF000072A00F296800E9B002B00F09280B9F13A
:100E0000000F00F08E80129BB3F5006F00F3898015
:100E1000012803D1109B002B00F08380444B03EB8F
:100E200005131B7B002B7ED0424C1022002168460C
:100E300005F016F804EB45141022A7BB39462046EE
:100E400005F00EF843F210036380BBF1000F03D1ED
:100E5000E37843F00303E370364A0E9B02EB451C34
:100E6000CCE90193129B6901581E9DF84C30C0F3E8
:100E70000A0003F003039B0643EA001E53582E4862
:100E8000012E00EA03004EEA0003CDF800A0535003
:100E900017D0B8F1000F2ED19CF8023068F304137C
:100EA0008CF8023027E00021204604F0D9FF4FF4EF
:100EB00044736380BBF1000FCED1E37843F030037D
:100EC000C9E713230CF1100ECCF80C309CE80F008E
:100ED0008EE80F006FF00301DCF81C20109B61F31B
:100EE0009F02012FCCF81C20CCF8143003D1CCF891
:100EF0001890CCF8043000270D4A290102EB0513A5
:100F000042F80180159A28465A60694622469F6039
:100F10005E7302F06BF9384605B0BDE8F08F074804
:100F2000FAE70748F8E70748F6E700BFA7150020EB
:100F300054130020541200200F80FFF3028000F0B1
:100F4000018000F0078000F038B5124B05461B7891
:100F5000DBB1E0B105F0D4FD0F4A00231146147B4C
:100F600054B92B6001251A0101EB03131D738C503A
:100F700005F0C1FD204638BD0133082B02F11002F7
:100F8000EDD105F0B8FD0548F5E70548F3E705485C
:100F9000F1E700BFA715002054130020048000F0E3
:100FA000028000F0018000F038B505F0A9FD0023B3
:100FB00005460B4A147B6CB90133082B02F1100271
:100FC000F8D102F095F8074B28461C7005F093FD08
:100FD000204603E0284605F08EFD034838BD00BFDB
:100FE00054130020A7150020058000F00D4B10B50C
:100FF0001B78044693B1072812D805F081FD0A4BEF
:1010000003EB04131A7B2AB100241C7305F073FD53
:10101000204610BD05F06FFD0448FAE70448F8E7E4
:101020000448F6E7A715002054130020068000F0BE
:10103000028000F0018000F0154B13B51868002302
:1010400001908DF8043005F05BFD124B1C7824B143
:1010500005F051FD104802B010BD01221A7005F0D4
:101060004AFD0E4B01A81C731C7783F82C4083F8B3
:101070003C4083F84C4083F85C4083F86C4083F834
:101080007C4008238DF8073002F068F82046E2E73C
:10109000A2700008A7150020038000F05413002060
:1010A000F8B50D4D2D7885B1072810DC0B4D0601E4
:1010B00005EB0014277B67B1AB510025069BA560AB
:1010C000636002F093F82846F8BD0548FCE7054840
:1010D000FAE70548F8E700BFA715002054130020E1
:1010E000028000F0018000F0078000F00A4A08B595
:1010F00012785AB107280BD8084A02EB00131B7B61
:1011000043B1002102F00AF8002008BD0448FCE7C2
:101110000448FAE70448F8E7A71500205413002014
:10112000028000F0018000F0078000F00A4A08B554
:1011300012785AB107280BD8084A02EB00131B7B20
:1011400043B1012101F0EAFF002008BD0448FCE79B
:101150000448FAE70448F8E7A715002054130020D4
:10116000028000F0018000F0078000F0184B2DE9AC
:10117000F0411F6D5B6D1F4000D5FEE70126002585
:10118000144CDFF85880374218D02368C8F85060F4
:10119000A3B1A168284601316268A1609847637BCA
:1011A000012B0BD150B90C4B03EB45131A7B60F3A9
:1011B00041021A731A7F60F341021A770135082D34
:1011C0004FEA460604F11004DDD1BDE8F08100BF0E
:1011D000000004505413002054120020002004503A
:1011E000044BD3F88420D206FBD4D3F88400C0F398
:1011F000811070470040005038B5104B0546D3F8B9
:1012000000310C4603F00303022B0BD0032B0DD04F
:10121000012B0FD105F0C8F8032305B1286004B1F4
:10122000236038BD05F012F90923F6E705F0C2F88E
:101230000823F2E701230020EFE700BF0080005001
:1012400038B5104B0546D3F840310C4603F0030384
:10125000022B0BD0032B0DD0012B0FD105F03CFC42
:101260000A2305B1286004B1236038BD05F0EEF80B
:101270000923F6E705F033FC0C23F2E701230020F5
:10128000EFE700BF0080005038B5104B0546D3F89B
:1012900060310C4603F00303022B0BD0032B0DD05F
:1012A000012B0FD105F018FC0A2305B1286004B109
:1012B000236038BD05F0CAF80923F6E705F00FFCF6
:1012C0000C23F2E701230020EFE700BF008000506D
:1012D00038B5104B0546D3F840320C4603F00303F3
:1012E000022B0BD0032B0DD0012B0FD105F0F4FBFB
:1012F0000A2305B1286004B1236038BD05F0A6F8C3
:101300000923F6E705F0EBFB0C23F2E701230020AD
:10131000EFE700BF0080005038B5124B0546D3F808
:1013200080300C4603F00303022B0BD0032B0DD0AF
:10133000012B0FD104F0FEFF0E2305B1286004B18C
:10134000236038BD05F03AF80723F6E704F0ECFF18
:101350000623F2E7044841F2142104F0C2FA002304
:101360001846EAE700800050A670000838B51A4B0E
:101370000546D3F820010C4600F00700062821D8C6
:10138000DFE800F028040C1410181C0004F0CCFF57
:10139000052305B1286004B1236038BD05F004F8C9
:1013A0000323F6E705F00AF80723F2E704F0F8FF55
:1013B0000223EEE704F0B8FF0623EAE704F0F4FFA7
:1013C0000423E6E7054841F2912104F08AFA00235C
:1013D0001846DEE70123DCE700800050A670000815
:1013E00038B5194B0546D3F828310C4603F00703EE
:1013F000013B052B20D8DFE803F003131B0F0B176D
:1014000004F092FF052305B1286004B1236038BDC4
:1014100004F08AFF0623F6E704F0D0FF0723F2E783
:1014200004F0C2FF0323EEE704F0BEFF0423EAE763
:1014300004F0B6FF0223E6E7044841F2990104F004
:1014400050FA00231846DEE700800050A67000081E
:10145000002337B50193194B0546D3F820320C46CB
:1014600003F00703042B1FD8DFE803F025030F1454
:101470001900002101A8FFF7B3FF12230DB1019A53
:101480002A6004B1236003B030BD04F097FF072346
:101490000190F3E705F020FB0A230190EEE704F04A
:1014A000D5FF09230190E9E741F25601044804F011
:1014B00018FA0023E2E70123E0E700BF00800050B4
:1014C000A6700008F7B50027144B0197D3F88041A8
:1014D000064604F00304022C0D4614D0032C0DD054
:1014E000012C14D1394601A8FFF740FF10240EB19A
:1014F000019B336005B12C6003B0F0BD04F05EFFCA
:1015000007240190F3E704F04BFF0190EFE741F26D
:10151000E631034804F0E5F93C46E8E70080005076
:10152000A670000838B5164B0546D3F800020C46E5
:1015300000F00700042819D8DFE800F020030B0FA3
:10154000130005F0C9FA0A2305B1286004B123602D
:1015500038BD04F07BFF0923F6E705F0C0FA0C2341
:10156000F2E704F007FF0F23800AEDE7054841F298
:10157000A44104F0B6F900231846E5E70123E3E7A8
:1015800000800050A670000838B5164B0546D3F809
:1015900008020C4600F00700042819D8DFE800F024
:1015A00020030B0F130005F097FA0A2305B12860FA
:1015B00004B1236038BD04F049FF0923F6E705F0C4
:1015C0008EFA0C23F2E704F0D5FE0F23800AEDE734
:1015D000054841F2DC4104F084F900231846E5E7B0
:1015E0000123E3E700800050A6700008002337B510
:1015F0000193184B0546D3F860320C4603F00703FD
:10160000013B032B1FD8DFE803F0020E1914002161
:1016100001A8FFF7ABFE10230DB1019A2A6004B1B7
:10162000236003B030BD002101A8FFF709FE11239C
:10163000F2E704F0C3FE07230190EDE704F0B0FEEB
:1016400002230190E8E741F2FD01034804F049F963
:101650000023E1E700800050A6700008002337B5A2
:101660000193184B0546D3F894320C4603F0070358
:10167000013B032B1FD8DFE803F0020E19140021F1
:1016800001A8FFF773FE10230DB1019A2A6004B17F
:10169000236003B030BD002101A8FFF7D1FD112365
:1016A000F2E704F08BFE07230190EDE704F078FEEB
:1016B00002230190E8E741F23011034804F011F9E8
:1016C0000023E1E700800050A670000873B50024F5
:1016D0000F4B0194D3F87032064603F00303012B3D
:1016E0000D4607D0022B11D041F25B11094804F0DE
:1016F000F8F804E0214601A8FFF7A2FD11240EB17D
:10170000019B336005B12C6002B070BD1524F6E773
:1017100000800050A670000808B5334B98424FD0A7
:1017200027D8324B984245D017D8314B98423ED0FB
:101730000AD838B12F4B984239D041F2BB312E48EC
:1017400004F0CFF8002034E02C4B98422FD02C4BE3
:101750009842F2D12B4B586E2BE02B4B98422CD059
:1017600003F5371303F5D8639842E6D1254B986FFC
:101770001FE0264B98422FD00CD8254B984223D0FF
:10178000244B984224D0244B9842D6D11D4BD3F8F9
:1017900084000EE0214B984222D003F5740303F538
:1017A00010539842C9D1174BD3F8980001E0154B5C
:1017B000986D08BD134B186FFBE7124B586FF8E795
:1017C000104BD3F88000F4E70E4BD3F88800F0E715
:1017D0000C4BD3F88C00ECE70A4BD3F89000E8E709
:1017E000084BD3F89400E4E780BA8C01405DC60052
:1017F00080841E0040420F00A670000800093D00D2
:10180000C0CF6A000080E00F0024F400007E560381
:1018100080D54302006CDC020048E8010090D00350
:10182000B0F5207F10B52ED009D8B0F5007F24D0B8
:1018300003D868B1B0F5C07F0AD000241BE0B0F532
:10184000607FFAD1124BD3F88040C4F3011412E048
:101850000F4B1C6F230B13F00E0FC4F303340AD08D
:10186000072C08D00F2C06D0032C04D04FF4227183
:10187000084804F036F8601C10BD054BD3F89040C2
:10188000C4F30464F7E7024B1C6FC4F38024F2E74F
:1018900000800050A67000084FF4803238B5104B1D
:1018A00004469A6600200D46FFF7BAFF41F67132F2
:1018B0000C4B6043DC69DA635A6804F4803422F428
:1018C00040125DB90849884294BF002001200005FC
:1018D00002435A600CB10022DA6338BD0349F2E7D3
:1018E0000090005000000350005A6202002D3101A8
:1018F00038B5430904460D460ED140F235310D4846
:1019000003F0EFFF002304F01F0485B103F58053BB
:101910000122A2401A6038BD012B04D0022B04D052
:1019200040F24331EBE7044BEDE7044BEBE703F503
:101930000053EDE7A67000086480005068800050F6
:10194000002130B5B0F5807F85B00446CDE90011A7
:1019500000F0D3803DD85E2833D85E2833D8DFE846
:1019600000F04832323232323232323232323232B5
:101970003232323232323232323232323232323247
:10198000323248AD48ADBDBDBDBDBDADC7516EDD48
:1019900051ADADAD3232323232323232ADADAD81D7
:1019A000E7AD32323232323232323232323232BD5C
:1019B000484848E25151EC9066C232323232329895
:1019C000480080286AD040F2A441604803F089FFB3
:1019D00067E0B0F5D06F00F0A18035D8B0F5607F3A
:1019E00077D01AD8B0F5007F5ED005D8B0F5C07FAB
:1019F000E9D104F0BFFC53E0B0F5207F5ED0B0F534
:101A0000407FE0D104F0B6FC04464FF42070FFF7AD
:101A100007FFB4FBF0F4640859E0B0F5B06F67D08D
:101A20000AD8B0F5806F59D0B0F5A06FCBD10021A6
:101A30006846FFF70DFD34E0B0F5C06FC3D100215B
:101A40006846FFF7FDFB2CE0B0F5106F6BD00ED8A9
:101A5000B0F5086F76D0B6D8B0F5E06F68D0B0F5C5
:101A6000F06FB0D100216846FFF70EFC19E0B0F529
:101A7000406F38D00AD8B0F5206F5ED0B0F5286F2F
:101A8000A1D100216846FFF721FE0AE0B0F5486FBA
:101A900099D100216846FFF7E1FD02E004F04AFC1D
:101AA0000090009805B030BD04F044FC0546204687
:101AB000FFF7B6FEB5FBF0F50095F2E704F05AFC2F
:101AC00004464FF42070FFF7ABFEB4FBF0F4009433
:101AD000E7E701A8FFF720FC019DE8E70021684641
:101AE000FFF744FCDDE700216846FFF779FCD8E703
:101AF00000216846FFF7E6FCD3E74FF0E0230291B0
:101B00001B695B0705D504F035FC0290029B00932E
:101B1000C7E703A902A8FFF793FBF7E70021684690
:101B2000FFF700FDBDE700216846FFF72DFDB8E790
:101B300000216846FFF7CCFBB3E700216846FFF7BA
:101B400055FDAEE76846FFF757FBAAE7A670000809
:101B500008B58020FFF7F4FE034B98429EBF4FF478
:101B60008032024B1A6708BD005A620200A0005082
:101B70001FB503460020B3F5807F019000F0C580BB
:101B800063D85D2B54D84C2B06D82D2B46D8232B4D
:101B90002AD840F28951A7E04D3B102BF9D801A279
:101BA00052F823F0011D0008931B0008931B000846
:101BB000931B0008AB1C0008931B0008931B000834
:101BC0005B1D0008C91C00086F1C0008511D00089F
:101BD000931B0008931B0008931B0008931B00082D
:101BE000931B0008651D0008243B092BD1D801A2D6
:101BF00052F823F0011D0008011D0008011D000816
:101C0000011D0008011D0008931B0008F11C0008BD
:101C1000931B00088B1C0008371D00083D2B00F0AB
:101C200085803E2BB5D1002001A9FFF751FB63E071
:101C3000802BAED14E4B1B6F03F00703013B032BF0
:101C400050D8DFE803F04D46494BB3F5F06F6DD047
:101C500020D8B3F5B06F4BD00ED8B3F5607F73D0FA
:101C600097D3B3F5806F4BD0B3F5A06F91D100201F
:101C700001A9FFF7EDFB3FE0B3F5D06F5BD0B3F503
:101C8000E06FD0D0B3F5C06F83D1002001A9FFF77A
:101C9000D7FA31E0B3F5206F5FD00BD8B3F5086FFA
:101CA0004ED0B3F5106F7FF474AF002001A9FFF799
:101CB0006BFC21E0B3F5406F4AD0B3F5486F51D0CB
:101CC000B3F5286F7FF465AF002001A9FFF7FEFC94
:101CD00012E0052301930FE00323FBE70823F9E754
:101CE0000223F7E740F2D641224803F0FAFD03E071
:101CF000002001A9FFF7E6FB019805B05DF804FBA1
:101D0000002001A9FFF732FBF6E74FF0E023029035
:101D10001B695B0705D504F02DFB0D230393039B83
:101D2000D8E703A902A8FFF78BFAF8E7002001A97A
:101D3000FFF7AAFAE0E7002001A9FFF7F3FBDBE7D2
:101D400001A9FFF759FAD7E701A9FFF7E5FAD3E7A9
:101D5000002001A9FFF744FBCEE7002001A9FFF70F
:101D600045FCC9E7002001A9FFF778FCC4E700BFE4
:101D700000800050A67000084FF48032074B0849DD
:101D8000586E03F580535A664B6A23F001034B6289
:101D9000C3035CBF034B5A66704700BF008000500E
:101DA00000C0075000A0005038B5036804460F2B50
:101DB00004D940F68A317C4803F093FD63680F2B09
:101DC00004D940F68D31784803F08BFDA3680F2BC2
:101DD00004D94FF43961744803F083FD237B0F2B42
:101DE00004D940F69331704803F07BFD637B0F2BE1
:101DF00004D940F696316C4803F073FDA37B3F2B6A
:101E000004D940F69931684803F06BFDE37B3F2B22
:101E100004D940F69C31644803F063FD2369032B29
:101E200004D940F69F31604803F05BFD6369032BE2
:101E300004D940F6A2315C4803F053FDE369032B5B
:101E400004D940F6A531584803F04BFD8020FFF738
:101E50008FFE032800F083804FF48012534B4FF025
:101E6000A0615A6645F60E02514BC3F88020514AD4
:101E700091624FF4803102F5805291629A6DD203E3
:101E8000FCD4996D11F08041FBD1D4E90002120518
:101E900042EA0062E07B0243207B42EA0042607B30
:101EA00042EA0032A07B42EA80121A619869D4E9C2
:101EB0000452120642EA856200F000400243A07E0E
:101EC000E57E0243207E42EA0042607E42EA002232
:101ED0009A611A6AE06922F00F0242EA8502364DE1
:101EE00000283DD11A6294F82420996A94F82000C1
:101EF000D200294042EA40120A4394F8211042EAF3
:101F0000011242F480329A622C49294A936D31EAD7
:101F10000303FBD14FF08071264881621369A568E5
:101F200023F4700343EA055313614FF000438361C8
:101F300094F822300BB9224B996294F823303BB9C4
:101F40004FF480321E4B9A62194A936D5B00FCD4A9
:101F500094F825301BB1164B1A4AC3F8802038BDBF
:101F6000024342F0080202281A6208D119614FF4B4
:101F70000852996114484FF47F4103F0E7FC0C4983
:101F800094F822308A6A94F820001B062A4043EA1B
:101F90004013134394F8242043EAC20394F8232007
:101FA00043EA02438B62D3E7A6700008009000501A
:101FB0000040005A0050005AC7FFFEFE0300010017
:101FC0000060005AF1A7FFFF3440005A014B93F91B
:101FD0000000704759160020436810B5072B0446CF
:101FE00004D940F6E6512A4803F07BFCA368032B92
:101FF00004D940F6E851264803F073FC2378032BFC
:1020000004D940F6EA51224803F06BFC94F9013000
:10201000002B04DA40F6EC511D4803F062FC4FF44B
:1020200000011C4A637851664FF4D151022002F539
:10203000B832516218494F2B48604FF0010028BF59
:102040004F2301F5805148601169C903FCD4217800
:1020500043EA01235361D4E901131B0143EA01233D
:10206000617B0B43217B43EA41039360E37BA17BCC
:102070001B0143EA4113617C0B43217C43EA41038A
:102080005360A37C13B16FF4D153536210BD00BFF2
:10209000A67000080090005000100250014B1880FC
:1020A000704700BF56160020014B1880704700BFD4
:1020B000541600204FF4800208B5184B5A660223CC
:1020C000174A5360936813F48033FBD1012822D15F
:1020D00004F06AF9134B984215D003F5122303F567
:1020E000F863984213D0104B00EB8002400AB3FB18
:1020F000F0F3520A0A49CA620B6301234B620022C1
:10210000074B5A6008BD45F67A13084AF2E745F6D0
:102110001A03074AEEE75362F1E700BF0090005050
:102120000040025000F0490264666666D8B80500B7
:10213000BBCF0500B0F5207F38B577D00ED8B0F50D
:10214000007F61D003D890B3B0F5C07F2FD04FF49B
:102150004671BDE838403D4803F0C3BBB0F5607F31
:10216000F5D13B4A4C1ED2F8FC5015F080751EBFCD
:10217000D2F8FC3023F08073C2F8FC30032C04D971
:1021800040F2F721314803F0ACFB324AD2F88030FC
:1021900023F0300343EA0413C2F8803035B12C4AEF
:1021A000D2F8FC3043F08073C2F8FC3038BD4C1ECE
:1021B000012C0AD9102903D8274BCB40DB0704D4C4
:1021C00040F2CB21214803F08CFB03F0CEFB03F05F
:1021D000DAFB4FF48031214B1E4A1967136F23F449
:1021E000704343EA0433136704F0C4F80446FEF76F
:1021F000F7FFC0F10201204603F0BFFB00F048F8F2
:10220000BDE83840FFF7A4BC4C1E1F2C04D94FF486
:1022100043710E4803F065FB0E4AD2F8903023F06C
:10222000F85343EA0463C2F89030BFE74C1E012C18
:1022300004D940F21231054803F053FB054A136FED
:1022400023F4806343EA84231367AFE7A670000892
:1022500000ED00E0008000501001010000900050EF
:1022600008B50121022000F099F94FF42070FFF722
:10227000D7FA054B187003F078FB03F084FB4FF49A
:102280008032024B1A6708BDA8150020009000504C
:1022900008B54FF4C070FFF753FBBDE80840044990
:1022A000884294BF012102214FF42070FFF742BF02
:1022B00080F0FA0238B5044604F05CF80546FEF7F3
:1022C0008FFFC0F10201284603F057FB01210020D7
:1022D00000F0B8F92CB1FFF7DBFFBDE83840FFF79D
:1022E00037BC034B4FF420701978FFF723FFF4E756
:1022F000A81500202DE9F0410546FFF70DFA431E11
:102300000333044604D940F6E2113B4803F0E9FAEE
:102310004FF4C022394B5A6603F598335A68012AA4
:1023200004D137494A605A689207FCD48020FFF7ED
:102330001FFC052807D103F018FB03F024FB4FF422
:1023400080322E4B1A672F4B24F040749D4239D0B7
:102350002D4B9D4239D003F0E7FF8542064603D955
:102360000121284600F06EF9284FFB6813F0060F94
:10237000FBD1D7F80880BC60BB68634013F4F81F3A
:1023800026D12846FEF75AFB8020FFF7F1FB0528EF
:1023900014D103F0EFFFA842044604D940F63B21D4
:1023A000154803F09EFAFEF71BFFC0F1020120461C
:1023B00003F0E3FAFFF76CFFFFF7CAFBAE4213D25C
:1023C000BDE8F08144F00074C5E744F08074C2E7D2
:1023D00040F62A21084803F084FA8020C7F80880D4
:1023E000FFF7C6FB052805D0BDE8F041012100201C
:1023F00000F028B93546CCE7A670000800900050E0
:1024000000E0015040420F0080841E000000015097
:102410004E4B70B59842054673D041D8A3F5B7032B
:10242000A3F55863984265D033D8494B494E98423A
:1024300051D017D8002877D041F2DE11464803F07A
:1024400050FA40F68671444803F04BFA4FF40022EC
:10245000404B5A663E4B9D4276D000243F4A9542FF
:1024600036D05DE03D4B984227D03D4B9842E3D1BA
:102470003C4BD3F8A040621E033224F040744CD988
:1024800040F68671344803F02CFA4FF4002373664B
:10249000E4E7354B9842CFD1324BD3F8BC402CE027
:1024A000324B984231D0324B984232D0314B984225
:1024B000C2D12C4BD3F8C8401FE02A4BD3F8A04020
:1024C000621E033224F04074DAD84FF4002373669E
:1024D00044F0807424E0234BD3F8A040621E033202
:1024E00024F040742AD84FF400237366234643F047
:1024F000007415E01B4BD3F8B840621E154E033232
:10250000BBE7184BD3F8C040F7E7164BD3F8CC40E5
:10251000F3E7144BD3F8D040EFE74FF40023736692
:102520004FF0B442946070BD40F686710A4803F0E3
:10253000D8F94FF400232C467366F1E740F6867114
:10254000054803F0CEF9CEE70023D0E7C0EA210129
:1025500040420F0000900050A670000880841E00CA
:1025600000093D000080E00F0024F4000048E8016D
:10257000005A620280BA8C01024A536B0342FCD1BA
:10258000704700BF00400950034A0179D36E23F021
:1025900030030B43D366704700400050F8B5044643
:1025A000244BD3F88420D006FBD4D3F88430C3F373
:1025B00081139C423CD003F0BDFE012C05460BD19B
:1025C0001D4B984204D940F28F711C4803F089F9E1
:1025D0000121284603F0D1F904F089FA4FF0007286
:1025E000174B07465A66204603F0D2F94FF4806332
:1025F000104E621E93403367736E9A0103D4D6F86F
:1026000084309B060AD5384604F06CFA022C0FD1B0
:102610002846BDE8F840002103F0AFB9D6F8843071
:102620009906E9D540F2A771044803F05AF9E3E7A7
:10263000F8BD00BF00400050005A6202F67000086A
:102640000060005010B50C4608B903F073FE074B4C
:1026500021461B783BB1064B984204D80120BDE8C7
:102660001040FFF79BBF0220F9E700BFA91500202B
:10267000005A62024FF0004238B5244B244C5A668F
:102680004AF6CD33656C014605F00105236428BB8D
:102690000120FFF771FF6368DB0715D51D4B5860FC
:1026A00008461D4B226BD2070CD4984208D1072450
:1026B00015B1174B194A1A6403F06BF9204638BD5F
:1026C0000130EFE79842F2D00024F1E70132236BAA
:1026D00013F0080305D08A42F8D1E8E700220E493A
:1026E000F5E78A42E3D020210A4A91620121A2F54E
:1026F000805251600649084A886A800603D4934292
:10270000D5D00133F8E79342DDE700BF00900050D9
:10271000004009500060095040420F003254FFFF52
:102720004FF0004238B5164B01465A664AF6CD3393
:10273000144C154A656C236443780B205B0043F00E
:102740000103D363FFF718FF63688A7823F4F873F3
:1027500043EA02136360CA784B7943EA0223A36019
:102760000A798B7943EA022323610878FFF782FF15
:10277000EB0744BF054B236403F00BF9012038BD80
:102780000090005000400950004000503254FFFFBC
:102790000F2870B5044605D940F66861124803F069
:1027A000A0F80F244FF00042104B11495D6E03F565
:1027B00080535A664AF6CD334E6C80200B64FFF787
:1027C000DBFE0B6A23F00F0323430B62F30744BFC6
:1027D000084B0B64002DA2BF4FF00042064B5A6617
:1027E00003F0D7F870BD00BFF670000800800050FD
:1027F000004009503254FFFF00A0005010B503F014
:10280000CDF8042300F5805100F500520B611361EF
:102810000B6113610B6113610B611361202341F2A2
:10282000020103610023C360836041614FF4A02172
:102830008361836541620549C36103628362C36248
:1028400043630365D164036310BD00BFFF3F0D0305
:1028500038B5174B044698420D4607D0154B9842A1
:1028600004D040F26911144803F03BF825B9204622
:10287000BDE8384003F092B8012204F580535A6055
:1028800040F6FF71204605F00F0203F083F8A263C3
:10289000782103F07FF805F001036A0748BF43F091
:1028A0000203A26C02F003029A42FAD138BD00BFC3
:1028B0000000015B00000A5046710008F8B50546AB
:1028C0000C46164622B940F227216B4803F009F85E
:1028D0006A4B9D4202D19CB956240DE0684B9D4243
:1028E00047D040F22A21644802F0FBFF44B940F28D
:1028F0007931614802F0F5FF2046FFF721F80446E0
:10290000AB68D80745D5B44204D24FF40D715A488C
:1029100002F0E7FFB4FBF6F46F68013CFF2C07F010
:10292000010704D94FF40F71534802F0DAFF24066F
:102930004FB32821284603F02DF8AB6C99071CD122
:10294000AB6CDA071BD4AE6C16F0020619D140F25C
:102950004921494802F0C5FF284603F01FF82B69BA
:10296000314623F07F4323432B61BDE8F840FFF756
:102970006FBF002CC4D15724BEE70526ECE709261B
:10298000EAE70626E8E72B6923F07F4323432B6120
:10299000F8BD6B68012B04D04FF41771364802F074
:1029A000A0FFAB6DDB07AB6848BF760003F0E00328
:1029B000402B42D009D893B1202B1AD040F29E214F
:1029C000BDE8F8402C4802F08CBF602B42D0802B31
:1029D000F4D106EB4603A34247D801230DE0B6EB42
:1029E000141F04D94FF42171234802F07AFF1023F9
:1029F00003E0B6EBD40F1AD8082373436401B4FB89
:102A0000F3F4204F203CB7EBC40F4FEAC40604D2C6
:102A100040F2A921184802F064FF28463E400121F7
:102A200002F0B8FF2E63BDE8F84002F0B3BF40F2F9
:102A30008921114802F055FFDEE70623B4FBF3F3CA
:102A4000B34201D30623D8E740F28E210A4802F0B0
:102A500048FFF7E7B6EB940F01D80423CDE740F227
:102A60009321054802F03DFFF7E74FF42671024835
:102A700002F037FFB1E700BF467100080000015BBC
:102A800000000A50F8FF7F002DE9F04198464368A6
:102A900004460E4617461BB140F6FF7102F07AFF5E
:102AA0002046FFF7ABFEF189737B62690B43318AE5
:102AB00022F44C5222F00F020B4313436361A268CD
:102AC00096F818C0337B22F0804222F0E2024CEAF2
:102AD0000303134372691343B268A3601AB9A3686E
:102AE00043F00043A360F06904F58053002878D0D8
:102AF000857A017A6D04D4F808E045EA81556E497B
:102B00000EEA01010D43818801F4C0410D43417873
:102B100045EA8105417B45EAC105817B45EA01150E
:102B2000817845EA8125A560D4F80CE0D0E9041548
:102B30002943624D0EEA05052943857941EA85213D
:102B4000C57941EA4521E16001785D4D012914D143
:102B5000E16841F00401E160AC4200F09280594923
:102B60008C420CBF01214FF0FF31490101F1A0411E
:102B700042F2944501F5703114E003297BD1E168FC
:102B800041F00401E160AC4279D04E498C420CBF67
:102B900001214FF0FF3141F29445490101F1A0417B
:102BA00001F570314FF0020E41F805E0417A99626B
:102BB00019B1E16841F40061E160C17A59B1E1689D
:102BC00041F40041E1603E498C425CD1017B3E4DC5
:102BD00001F00F016967616AC07B21F003010143C5
:102BE00061622FB197F82010002956D00121196297
:102BF000B8F1000F2DD0BCF1000F02D04FF400410E
:102C000099652F49B8F822508C4298F8211051D07C
:102C10002C48844213D10120112934BF4FF0010CFC
:102C20004FF0020C294FB5F5006F07F800C094BFB4
:102C30004FF0010C4FF0020C254F07F800C0A06DBB
:102C4000294320F4F95020F01E000143A165012121
:102C50009965012159601AB120467168FFF72EFE6F
:102C600020463178FFF7F4FDA36CDB4313F4405F9B
:102C7000FAD1BDE8F0810239012984D96CE700213D
:102C800089E7002171E70F498C4201BF017B0E4D9E
:102C900001F00F01C5F880109DE7E06997F8221058
:102CA00097F8215020F009002943014341F0010128
:102CB000D9619DE70020AFE7E39BBDFFFFF9F087F7
:102CC0000000015B00000A5000900350AC1500208A
:102CD000AA150020134B70B5984205460C4606D045
:102CE000114B984203D07021104802F0FAFD1CB934
:102CF00072210E4802F0F5FD237B802B03D1762153
:102D00000A4802F0EEFD637B032B03D979210748C3
:102D100002F0E7FD002321462846BDE870401A4630
:102D2000FFF7B2BE0000015B00000A5046710008C8
:102D30002B4B70B5984205460C4643D119B98C21EE
:102D4000284802F0CEFD5620FEF712FF0C2807D0CF
:102D5000A0F10903012B03D9A0F11103012B3AD8EB
:102D6000637B032B03D9AD211E4802F0BAFD237B00
:102D7000802B03D0AF211B4802F0B3FD6369B3F190
:102D8000804F03D0B121174802F0ABFD238A23F412
:102D900000539BB2B3F5805F03D0B321114802F01A
:102DA000A0FDA368013BB3F5165F03D3B5210D4821
:102DB00002F097FD002321462846BDE870401A46E0
:102DC000FFF762BE8A21074802F08BFD1CB98C21F7
:102DD000044802F086FD9E21024802F082FDBFE712
:102DE0000000015B46710008F8B5774B0446984235
:102DF0000E4606D0754B984203D0E221744802F08B
:102E000070FD1EB9E421724802F06BFD727BB3685D
:102E10007AB1704A934203D9E6216D4802F061FD10
:102E20003369C3B1DB7BB3B1E921694802F059FDD5
:102E300011E0694A934203D9EC21654802F051FD43
:102E4000336943B11A7F32B1B168644A5B7F914202
:102E500078D9042B78D86368356923B140F6FF71BF
:102E6000204602F097FD2046FFF7C8FC2269737BDD
:102E7000B17B22F087020B43134343F080032361AD
:102E8000002D63D02369297F23F0F80343EAC1139F
:102E90002978EA7B0B43297943EA4113697A43EAAB
:102EA000011343EA82132361E068D5E9053720F076
:102EB000F0403B4320F470200343287B697B43EAC6
:102EC000802343EAC133E360A368F07B23F003036C
:102ED000034343F00103A3606B88A06803F4C0437D
:102EE0000343A360A368687943EA8023A360AB79B6
:102EF000EF79606A1B013F0203F0700307F4E0679B
:102F000020F4772020F4EE603B430343287A00034B
:102F100000F4E0400343687F000400F470200343A2
:102F200063626369307B23F00F03034363616B8942
:102F3000A36141BBC2B1244B9C422ED0234B9C4287
:102F40003CD011E0042B86D8F3216EE7A368F27B16
:102F500023F00303134343F00103A3606369327B4F
:102F600023F00F03134363612046D6E90112FFF7F4
:102F7000A5FC20463178FFF76BFCA36CDB4313F410
:102F8000405FFAD1F8BD104B9C420CD1AB7B144989
:102F900003F00F034B67002AE6D02B7C104A03F0A6
:102FA0000F031367E0E7094B9C42DDD1AB7B0C4973
:102FB00003F00F03C1F88030002AD5D02B7C084ADB
:102FC00003F00F03D367CFE70000015B00000A5056
:102FD00046710008002D3101809698003F4B4C004F
:102FE00000900350032838B504460D4605D8094B18
:102FF00033F81030CB40DB0704D440F2854106485B
:1030000002F06FFC302301225C43044BAA401A51AA
:1030100038BD00BF3C7200089971000840D00350D1
:10302000032838B504460D4605D8094B33F810304F
:10303000CB40DB0704D440F25641064802F051FC75
:10304000302301225C43044BAA401A5138BD00BF13
:103050003C7200089971000840E0035003282DE9F4
:10306000F04104460D461746984605D81D4B33F8E7
:103070001030CB40DB0704D44FF4B0711A4802F093
:1030800030FC37B129462046B8F1000F20D0FFF7B9
:10309000A9FF0F21072D04EB440688BFA5F1080303
:1030A0004FEA0616114895BFAB009B0004360C365C
:1030B00007FA03F29940304402F099FC7FB929469F
:1030C0002046B8F1000F06D0BDE8F041FFF78ABFF7
:1030D000FFF7A6FFDDE7BDE8F041FFF7A1BFBDE8C0
:1030E000F08100BF3C720008EB71000830C0035053
:1030F00010B5152000F0C0FB0024FF22064B21462E
:103100005C6520209A625C60FEF7F2FB2146BDE818
:1031100010402120FEF7ECBB00000450072838B512
:1031200004460D4603DD7721084802F0DAFB1F2C28
:1031300003D99121064802F0D4FB064A064B002D24
:1031400008BF13460122A2401A6038BD447200082D
:1031500095720008401004504020045010B50446F9
:1031600018B991211F4802F0BCFB23781B0613F00D
:10317000604F03D092211B4802F0B3FBE3780F2B82
:1031800003D99521174802F0ACFB01212020FEF75E
:10319000AFFB01212120FEF7ABFB0122124B1520D2
:1031A0005A60227812069A606178A27842EA014257
:1031B0009A61FF229A6200229A631A644FF00042D9
:1031C0005A654FF0FF3203F500531A6500F0A4FB77
:1031D0001520E17800F0AEFBBDE81040152000F0AE
:1031E00069BB00BF4472000800000450F8B5012616
:1031F000C3B2072805460C46174606FA03F603DD58
:10320000DE21344802F06DFB1CB9DF21314802F0A9
:1032100068FB236823F47C1323F00F031BB1E22126
:103220002C4802F05EFBA37A1B0413F47C0F03D03E
:10323000E721284802F055FBE37A1B0513F07E6F67
:1032400003D0E921234802F04CFB237B5B0513F0FC
:10325000FE5F03D0EB211F4802F043FB1E4B27F01B
:1032600003071E65AB00226803F1A04303F5882322
:103270005A60302202FB05F0637B00F1A04000F5AC
:1032800080200366E37AA27A1B0543EA0243227B8D
:1032900043EA4253C365076703F032FC0F4B227ABF
:1032A0005E6502B11E64627A02B19E632279A379DF
:1032B00043EA0243084A93616179E37943EA0143AF
:1032C00006498B61064B56639E64BDE8F84003F0E7
:1032D00012BC00BF447200080020045000100450CB
:1032E0000000045010B50124C3B2072804FA03F407
:1032F00004DD40F27B11074802F0F3FA03F000FC12
:10330000054B5A6D22EA04025A659C62BDE81040E2
:1033100003F0F1BB447200080000045010B5012412
:10332000C3B2072804FA03F404DD40F299110A48F5
:1033300002F0D7FA03F0E4FB084BDA6A224208D124
:103340005B6B9C430CBF0124002403F0D4FB20469C
:1033500010BD0024F9E700BF4472000800000450CB
:1033600070B50125C3B20728044605FA03F504DD4C
:103370004FF4E071094802F0B4FA03F0C1FB3022C7
:10338000074B5E6B02FB04335C6E03F0B4FB35420B
:103390000ABFC4F30A100020013070BD4472000857
:1033A0000000045010B5044620B940F23A211048FC
:1033B00002F097FA2378C3B1013BDBB2022B06D8A7
:1033C0000C4A32F813306278D340DB0704D440F261
:1033D0003D21074802F085FA0122637821789A405E
:1033E00030235943044B5A5010BDFF23EBE700BF75
:1033F000E67200089C73000840E00350034BD3F8CA
:103400002424D3F820041040704700BF00C00350AC
:103410002DE9F041037804460D46164613B3013BEF
:10342000DBB2022B06D82A4A32F813306278D34036
:10343000DB0703D45D21274802F053FA264BD3F86B
:1034400010331BB16021234802F04BFA0F2D0BD82B
:10345000DFE805F03631313131313131313131315F
:1034600031313131FF23E1E7B4211A4802F039FA52
:103470004FF00008204606B303F052F80F2167789A
:103480002378072F03EB430388BF083F4FEA03135A
:10349000124895BFBF00BF0004330C3308FA07F28F
:1034A000B940184402F0B2FA85B9204656B1BDE8D9
:1034B000F04103F035B8A846DCE7FFF773FFDDE71E
:1034C000A846DBE7BDE8F041FFF76CBFBDE8F0813F
:1034D0009C7300084173000800C0035030C00350C3
:1034E000054B9A689107FCD45A689207F9D4DA69B7
:1034F000002AF6D1704700BF00800A5010B5074C73
:103500006368DB0704D44FF49F71054802F0E9F9C2
:1035100003F032F80223236110BD00BF00800A507F
:10352000A273000808B5FFF7DBFF0122024B03F589
:1035300080514A601A6108BD00800A50044B10B5E2
:103540005C68012C03D1FFF7D9FF024B5C6010BD12
:1035500000800A5000A00A5038B5074DFFF7C0FFA1
:103560006B680446012B03D1FFF7E8FFFFF7B8FFB4
:103570002378EB6038BD00BF00800A5038B505469F
:103580000C4603F003F8BDB96268237812B11278D3
:1035900043EAC203627843EA4203A26812B1127896
:1035A00043EA8213E27843EA8203226912B1127875
:1035B00043EA4223014A936438BD00BF00800A50A9
:1035C00030B58D488BB003F0A6FA20B140F2363109
:1035D0008A4802F086F96C46894D0FCD0FC42B68DE
:1035E000884A2360FF238DF80130D2F84C3113F460
:1035F000802340F0F580D2F850218DF801309DF8FD
:1036000001306C46FF2B08BF3F2368467E4D8DF886
:103610000130FEF7E1FC3220FEF740FD0FCD0FC474
:103620000FCD0FC495E8030084E80300754BD3F871
:103630004C21120340F1B880A3F5FE431C88B4F579
:10364000807F28BF8C248DF81940FEF7BFFC04440E
:1036500084F308046D488DF81840FDF7F5F96846C5
:10366000FEF7A2FB3220FEF71FFD6948FEF742FE7F
:103670006848FEF7CDFE684803F04DFA20B140F2ED
:10368000CB115E4802F02DF9644C0020FEF712FDCC
:10369000FEF7E6FD236F002023F0070343F003034A
:1036A0002367FEF707FE236F5D4923F47443236706
:1036B0005C4BD3F8FC2012F0807279D1D4F88030C2
:1036C00023F0030343F00103C4F88030C1F88020E5
:1036D000524CD4F8203123F0070343F00203C4F81E
:1036E0002031D4F8283123F0070343F00203C4F853
:1036F0002831D4F8803123F0030343F00103C4F8E8
:103700008031D4F8403123F0030343F00203C4F8BE
:103710004031D4F8603123F0030343F00203C4F8CE
:103720006031D4F8403223F0030343F00203C4F8BD
:103730004032D4F8003223F0070343F00203C4F808
:103740000032D4F8083223F0070343F00203C4F830
:103750000832D4F8703223F0030343F00103C4F8B5
:103760007032D4F8203223F0070343F00103C4F889
:103770002032FEF701FB4FF0E0220020136943F0F6
:1037800004031361D4F8603223F0070343F001030C
:10379000C4F86032D4F8943223F0070343F00103F5
:1037A000C4F894320BB030BDD3F85041E4B24AE7CC
:1037B000D3F8FC2022F08072C3F8FC20D4F88020DB
:1037C00022F0030242F00102C4F880200022C1F876
:1037D0008020D3F8FC2042F08072C3F8FC2077E709
:1037E0004FF07E6393F89C2093F99C30002BFFF6FA
:1037F00006AF8DF8012002E788750008CC74000838
:10380000447500080080E00F58750008C017530287
:1038100000B4C404C0EA21018C7500080080005087
:103820000090005000ED00E007B5094B18689A8839
:103830009B7900906846ADF804208DF80630FEF7BD
:103840006FFF0C20FEF7A4FF002003B05DF804FB1F
:103850008075000813B50024064A6846536F43F08C
:103860000103536700948DF80440FEF78DFE204657
:1038700002B010BD004000504C2810B504460DD8D1
:1038800001220A49630904F01F04A240203341F8D1
:103890002320BFF34F8FBFF36F8F10BD40F2251170
:1038A000034802F01EF8002CF7DBE9E700E100E036
:1038B000B47500084C2810B5044608D801236109E6
:1038C000074A04F01F04A34042F8213010BD4FF412
:1038D0009871044802F005F8002CF7DBEEE700BF12
:1038E00000E100E0B47500084B2810B5044604D987
:1038F00040F23B11064801F0F4FF064B621153F809
:10390000220004F01F04E040C04300F0010010BD9D
:10391000B475000800E100E0002808DB012243093B
:10392000034900F01F008240603341F823207047B4
:1039300000E100E038B500F110035C2B04460D46B1
:1039400004D94FF4EF710E4801F0CBFF0F2D04D9CD
:1039500040F2DF110A4801F0C4FF60B20028ACBF9A
:1039600000F16040074B4FEA0515EDB2ABBF00F523
:10397000614000F00F0080F800531D5438BD00BFB7
:10398000B475000814ED00E010B503F0B9F80A4B67
:103990001A786AB901226FF004041A7003F0ABF8C8
:1039A000204605210134FFF7C5FF4C2CF8D110BD8E
:1039B000BDE8104003F09FB8AE15002010B50446D6
:1039C00003F095F8024B1C6003F08CF8002010BD4A
:1039D000D413002010B503F08AF8034B1C6803F0E1
:1039E00081F8204610BD00BFD41300202DE9F0431C
:1039F0001D4613688FB01F6891F8313081468846A4
:103A0000144606AE1BB3DFF828C2BCE80F000FC691
:103A10009CE80F0086E80F0018220021684602F09B
:103A20001FFAA3680893237B012B13D0022B14D019
:103A30001BB1D921774801F054FF0023ADF826309F
:103A4000637B032B1FD8DFE803F00B25221BDFF875
:103A5000E4C1DAE74FF40073F0E74FF44073EDE7A9
:103A60000023ADF8283001238DF80630A37BCDF874
:103A700034D0042B11D8DFE803F014151515140009
:103A80004FF44053EDE7EB21624801F02AFF4FF479
:103A90008053E6E74FF40053E3E7FE215D4801F071
:103AA00020FF00238DF800305B4AD8F838302946D3
:103AB0001A605A4A48465A6000229A60584ADA60A8
:103AC000424600F069FC0646002840F09B802369CE
:103AD0005448C5F8A430237E85F8AB30E37D85F8E3
:103AE000AA30A37D85F8A930637D85F8A830A37E30
:103AF00085F8AD30637E85F8AC30237F85F8AF3034
:103B0000E37E85F8AE302368C5F8A03003F003F8F3
:103B100001230422A17D607DFFF7A0FA0123217E0D
:103B20000222E07DFFF79AFA85F8B060206902F082
:103B3000F2FF98F83130384606A9002B66D0FFF71F
:103B4000C9F895F8B03043F0040385F8B03014217B
:103B5000227D354B03EB4210C0F8941494F816C044
:103B6000617D253241EA0C41C0F8AC14207EE17D34
:103B700003EB421341EA00415960A37B03F0FD03CC
:103B8000012B0BD195F8B030022243F0010385F8E8
:103B9000B030A17E0023607EFFF760FAA37B023B7A
:103BA000012B0BD895F8B030042243F0020385F8BE
:103BB000B030217F0023E07EFFF750FA95F8B03057
:103BC000DB0717D5A17E627E237D42EA014241F2E6
:103BD0009C415B0103F1A04303F570335A5041F25D
:103BE000944202219950217FE27E03F5A55342EAD7
:103BF00001421A600D4A07F5005305213846DA6480
:103C0000FEF726FE30460FB0BDE8F083FFF790F8D0
:103C10009DE700BF2E760008895A00081B5B00084C
:103C20009F5A00089075000800C00350FF3F0D0325
:103C300098760008B876000840F24221014801F069
:103C400050BE00BF2E76000810B50020144601F0CB
:103C5000F2FE022804D018B1C321024801F041FE4F
:103C6000204610BDD87600083021037D02464B4324
:103C700003F1A04303F58023D86E07491B6F8842E8
:103C800008D113F0020006D0106A136D1B1A5842B7
:103C90005841704700207047AF150020302337B5DA
:103CA000007D0DF10701434303F1A04303F5802399
:103CB000DD6E1C6F02F0F0FB20B140F2F9310848D4
:103CC00001F00FFE9DF8070040B9064B9D4203D15D
:103CD00084F00204C4F3400003B030BD0120FBE7D0
:103CE00047770008AF15002037B504460DF10701EE
:103CF000007D02F0D1FB20B140F24441114801F0B7
:103D0000F0FD9DF80730A3B1256DD4E912231344CB
:103D10009D4201D8AA4204D940F24F41094801F01E
:103D2000E0FDD4E9120303449D4218BF284603B0C6
:103D300030BD3022237D534303F1A04303F580239C
:103D4000DD6EE2E7477700082DE9F743D0E9043458
:103D500004F17C07D0F80C90013B064610220021AC
:103D600038469DB2D4F8748002F07AF8104BC5F34F
:103D70000A0543EA0513C4E91F39012394F87800C2
:103D800084F88C30C4F884803A460A4B009604F1DB
:103D90006401FDF785F938B140F28D31064803B072
:103DA000BDE8F04301F09DBD03B0BDE8F08300BF66
:103DB00000001030313F0008477700082DE9F0433C
:103DC00000F13806044685B010220021304602F08A
:103DD00047F84FF44473534D207DC4E90F55638772
:103DE000FDF784F920B140F2CA514F4801F079FD46
:103DF00010220021304602F033F84FF444736387F9
:103E00003023207DC4E90F55434303F1A04303F55C
:103E10008023DB6EAB420BD1FDF788F9002876D00A
:103E200040F2D351404805B0BDE8F04301F059BD20
:103E30000DF10B0102F030FB20B140F2D9513A48AC
:103E400001F04FFD9DF80B30002B63D12046FFF7AA
:103E50004BFF03A90746207D02F040FB20B140F252
:103E6000E151314801F03DFD039B002B04DC40F2A1
:103E7000E3512D4801F035FD039B04F11808013B87
:103E80001022002140469DB2D4F8109001F0E8FFC6
:103E90003022237DC5F30A0553432D0145F04075BB
:103EA000C4E9065903F1A043276203F580231A6F82
:103EB00094F82410520862F3410184F82410196F19
:103EC00094F8242028F0030861F3000284F82420E9
:103ED0001B6F626A9B0863F39F0248F002036262F1
:103EE0006364009432462146104B207DFDF7D8F8DC
:103EF00020B140F204610C4801F0F3FC207DFDF795
:103F000015F920B14FF4C161074801F0EAFC05B092
:103F1000BDE8F08394F844306FF3410384F84430F3
:103F2000DFE700BFAF150020477700086B5B000894
:103F300038B55569144695F88C3023B940F26A318A
:103F40000A4801F0CEFC002305F1900085F88C3082
:103F5000FCF79CFD08B1FFF7F7FE63681BB1002179
:103F60002046A2689847002038BD00BF4777000868
:103F700038B50446007DFDF7B9F820B140F22D4177
:103F8000084801F0AEFC2046FFF76EFE0546207D96
:103F9000FDF7CCF820B140F23241024801F0A1FC1B
:103FA000284638BD477700082DE9F04F9946002391
:103FB00004468DB008910692C9F80030D9F8006027
:103FC000069B9D1B00F0C580089B9E1900F0C180D8
:103FD0002046FFF7CDFF8046002840F0BA802046FB
:103FE000FFF782FE226D904240F2BC80801A85422B
:103FF00028BF054694F896A0BAF1000F00F0F280B1
:1040000002F07EFD236D079020460993FFF746FEE0
:104010002F46099B834658198342D4F8981040F0E4
:10402000BC80D4E9122313448B4208BFC4F8982003
:10403000D4F898108A4201D88B4204D840F24251F9
:104040008A4801F04EFC079802F055FDDA46207DC3
:10405000FDF74CF820B140F28241844801F041FC68
:10406000207D0DF12F0102F017FA20B140F28641B8
:104070007E4801F036FC2046FFF736FE236D83466E
:1040800098429DF82F3040F2BC8023B140F28E411F
:10409000764801F026FCA26C236DAEB2934240F04C
:1040A000A880099304F128082369102200214046C2
:1040B000079301F0D5FE3021079B013EE362099B87
:1040C000C6F30A062363237D36014B4328F0030819
:1040D00003F1A04346F0407648F0020203F5802346
:1040E000A6621A67236DD4E912122B440A44934244
:1040F00008BF0B469342236504D340F2DE415B4880
:1041000001F0EFFB236D9B4505D10123204684F888
:104110005430FFF753FE207DFDF708F820B140F240
:10412000F741524801F0DDFB94F896303BB1BAF10B
:10413000000F04D0236E112120465B689847D9F800
:10414000003037B1069A3B449342C9F80030FFF47F
:1041500035AFD9F80030002B14BF00201B200DB064
:10416000BDE8F08FD4E912310B449A4204D340F2F7
:104170006A413E4801F0B5FBD4E912321344226D86
:104180009B1A9D4228BF1D46002D7FF433AF40F29D
:104190001651364801F0A5FB2CE701335A1E914217
:1041A00010D1C4F8983013F8012C112A01D0132A29
:1041B00014D1013FA2F111014A424A41D04684F88C
:1041C0009C2029E713F8012C02F0FD01112906D1EA
:1041D000013FB8F1000F3FF41FAFEBE7D04606F800
:1041E000012B19E72A463046216D01F044FE2F4687
:1041F0002DE7238DC3F30A12164466F30E132385AD
:1042000070E7207D93B93023584300F1A04000F5BA
:104210008020426E436EC2F30A1223F4FF432A4405
:1042200023F0700343EA021343665BE7104B0494E8
:1042300003930023CDE90153012300935A462369D8
:10424000216801F069FB20B140F2CB41074801F041
:1042500048FB3022237D534303F1A04303F5802321
:104260005A6E22F480125A663CE700BF4777000876
:104270006B5B00082DE9F84F90F8943004460D462A
:10428000002B40F0858090F89580DFF808918E181B
:10429000B54223D094F896306BB12046FFF768FE04
:1042A000F8B1D4F89820236D9A4204D040F2CD2181
:1042B000484601F016FB94F89C30002BE8D0236EA2
:1042C0002F462A785B68B8F1000F59D1236E20463B
:1042D0005B683978013598470028D9D00020BDE8BF
:1042E000F88F02F00DFC0746207DFCF7FFFE20B1A1
:1042F00040F2D321274801F0F4FA2046FFF7F4FCFE
:10430000A26C00F1FF3A924538BFE36C207D3CBFC0
:1043100003F1FF3302EB030A94F854B0FCF706FFF5
:1043200020B140F2DF211B4801F0DBFAD4F89810ED
:10433000BBF1000F22D0236D8B4204D04FF43971B2
:10434000144801F0CEFA384602F0D5FBB3E7A26C70
:104350009A4202D9E36C013B134499420BD013F803
:104360000129112A01D0132AF1D1A2F111035A42D5
:104370005A4184F89C20C4F898A0E4E75346ECE73F
:104380000A2AA3D10D212046984700289ED0A5E7F0
:104390000E20A4E747770008F0B50C461546064600
:1043A000A022002189B0204601F05AFD2746AC46E4
:1043B000BCE80F000FC7DCF8003005F1140C3B60BF
:1043C00004F16407BCE80F000FC7DCF80030EA6AAC
:1043D0003B60AB6AC4E9132395F83020A36484F8EA
:1043E000952095F83320C4F89830012384F896205E
:1043F00084F89C3084F85430AB6B2366324B3460C5
:104400007360324BB360324BF360324B7361324BAB
:10441000B361324B3361FCF70FFE10B1304B984261
:104420000FD1002107A8FCF78FFD014648B9079B73
:1044300007A82375FCF788FD0346207D23B1FCF710
:10444000D5FD102009B0F0BD079B84F87830FCF74B
:104450004DFE0028F5D1234B0494CDE90203E36C13
:104460000193012300932369A26C2168207D01F050
:1044700053FA0028E5D13022237D4FF480115343B5
:1044800042F2640203F1A04303F580239950AB6B21
:1044900093F91000FFF740FAAB6B93F91000FFF7A8
:1044A00009FA04F1900001F01DFA3046FFF786FA90
:1044B0002046FFF783FC207DFCF738FE003818BF4C
:1044C00001200001BEE700BF75420008DB5B000869
:1044D000A93F00085F5B0008655B0008E94400082D
:1044E000038000F06B5B000870B50568044695F822
:1044F0009460002E3BD101F093FBFFF76BFA8442EE
:1045000002D13046FFF75AFA2B6E93F91000FFF7ED
:1045100003FA2B6E93F91000FFF7AEF9287D01F036
:104520009BFF20B140F29721144801F0DAF9287D71
:10453000FCF75CFD20B140F29B21104801F0D1F95D
:10454000FCF732FD38B10E4B984204D040F29F2167
:104550000A4801F0C6F90023C4E90033C4E9053371
:10456000E3602B6E2846BDE87040DB68184740F2D8
:104570006621024801F0B5F90F2070BD47770008A9
:10458000058000F00346054A0549106803448B4244
:104590008CBF4FF0FF301360704700BFF415002050
:1045A0000000042070B502F0ABFA144E05463478D2
:1045B000FCB9134B1C60134B1C60134B1C6000F0C8
:1045C00047F8012002F03AFB02F028FA0F4B0246AE
:1045D000186020B9284602F08EFA232070BD2346C9
:1045E00040F2E7310A4800F095F80A4B18600123C1
:1045F0003370284602F07FFA0020EFE7B215002062
:10460000E0130020DC130020E8130020E413002056
:1046100018FCFFFFD8130020012300B58DB08DF8E2
:104620000F3002F03DF900230146CDE90033074A7F
:104630000DF10F0304A802F0D9FA18B99DF80F3054
:10464000002BFBD10DB05DF804FB00BFE76B000849
:1046500010B5002486B01422214601A88DF8004030
:1046600001F0FEFB012313488DF8043002F053FAE9
:10467000BFF34F8F6846FEF76FFF204601A98DF804
:104680000440FEF77BFF20460F2101F09FFF0F2122
:10469000204601F0A9FFFEF745FF01F06DFF064B34
:1046A00043209C61FFF738F94320FFF703F906B078
:1046B00010BD00BF8875000800800A5010B5044680
:1046C00001F058FE4FF47A729042B0FBF2F105D23D
:1046D0003621BDE810400C4801F003B90B4BB3FB89
:1046E000F1F30B49884201D93C21F2E702FB04F0C7
:1046F000B0FBF3F0022806D9BDE810400323B0FB5D
:10470000F3F0FBF735BD10BD1078000840420F00F4
:10471000E7CD9A3B53B94AB9002908BF00281CBF0E
:104720004FF0FF314FF0FF3000F082B9ADF1080CCF
:104730006DE904CE00F006F8DDF804E0DDE90223BF
:1047400004B070472DE9F04F099D0C46002B4DD168
:104750008A420F4684469646B2FA82F360D94BB13C
:1047600002FA03FEC3F120029F4000FA03FC20FA84
:1047700002F217434FEA1E461FFA8EF44FEA1C421C
:10478000B7FBF6F106FB117701FB04F042EA0742A2
:10479000904208D91EEB020201F1FF3702D290428B
:1047A00000F231813946121A1FFA8CFCB2FBF6F086
:1047B00006FB102200FB04F44CEA024C644508D9C5
:1047C0001EEB0C0C00F1FF3202D2644500F21E8198
:1047D000104640EA0140ACEB040C002125B12CFA54
:1047E00003F30022C5E90032BDE8F08F8B4205D902
:1047F0000DB1C5E9000100210846F5E7B3FA83F1E0
:1048000000294DD1A342C0F0F380904280F0F080A7
:10481000064623460846002DE6D0C5E90063E3E7D7
:10482000002B40F0A3808A1A4FEA1E471FFA8EF62B
:104830000121B2FBF7F407FB14204FEA1C4242EAC5
:10484000004206FB04F090420FD91EEB020204F175
:10485000FF382CBF4FF001094FF00009904203D9F7
:10486000B9F1000F00F0CC804446121A1FFA8CFCFC
:10487000B2FBF7F007FB102200FB06F64CEA024CF5
:10488000664508D91EEB0C0C00F1FF3202D26645DA
:1048900000F2B3801046ACEB060C40EA04409DE702
:1048A000C1F120068B4004FA01FE22FA06F720FA35
:1048B00006FCF4408A401F434EEA0C0300FA01FE56
:1048C0004FEA17484FEA13491FFA87FCB4FBF8F088
:1048D00008FB104449EA044400FB0CF9A1450ED939
:1048E0003C1900F1FF3A2CBF4FF0010B4FF0000BC9
:1048F000A14503D9BBF1000F00F08B805046A4EB1B
:1049000009041FFA83F9B4FBF8F308FB134403FB13
:104910000CFC49EA0444A44506D93C1903F1FF38CC
:1049200001D2A4457BD8434643EA0040A4EB0C04E3
:10493000A0FB02984445CC46434602D306D1CE455F
:1049400004D20138B9EB020C68EB0703002D6CD0E0
:10495000BEEB0C0264EB030422FA01F304FA06F640
:10496000CC4000211E43C5E900643DE702FA03FE86
:10497000C3F1200104FA03F200FA03FCCC404FEA31
:104980001E4720FA01F11FFA8EF6B4FBF7F00A4336
:1049900007FB1044110C41EA044100FB06F48C4271
:1049A0000ED91EEB010100F1FF382CBF4FF00109B9
:1049B0004FF000098C4202D9B9F1000F2CD04046CB
:1049C000091B92B2B1FBF7F407FB141142EA014252
:1049D00004FB06F1914207D91EEB020204F1FF38F5
:1049E00001D291421ED84446521A44EA004120E7BF
:1049F000861A64EB030301200DE7F44402384AE70A
:104A0000023C724431E702397244CCE6F444023885
:104A1000DFE602383C4472E702387144D0E7023BDB
:104A20003C4481E7023C7244DEE72946DCE600BFF5
:104A3000704700BF08B5064B044613B10021AFF321
:104A40000080044B1B6803B19847204601F06FF8C3
:104A500000000000241500202DE9F7431D46574BA8
:104A600004460E461F68904627B13B6A13B9384684
:104A700000F032F9B8F1020F06D0B8F1010F00F2E0
:104A80009980002DC0F29680636ED90705D4A38962
:104A90009A0502D4A06D01F0ECF92146384601F0E8
:104AA00015FB616B41B104F14403994202D03846D1
:104AB00000F09AF9002363630023A3616360A38974
:104AC0001B0603D52169384600F08EF9A389B8F199
:104AD000020F23F44A6323F00303A38160D001ABE8
:104AE0006A462146384601F005F9A3891843A0819A
:104AF0002DBB009D284600F0D9FA0646002851D16A
:104B0000DDF80090A9453FD14FF0FF35B4F90C30E6
:104B100043F00202A2810022A26004F14702226057
:104B2000226101226261626ED60704D4980502D424
:104B3000A06D01F09FF9284603B0BDE8F083002E78
:104B4000D8D03B6A13B9384600F0C6F8B8F1010F67
:104B5000266002BFA38943F00103A381B4F90C309E
:104B600013F00802C4E904651ED0D90745BF00222E
:104B70006D42A560A26048BFA561626ED20701D4F4
:104B80009B0513D50025D6E7484600F08FFA064668
:104B90000028B9D0A3894D4643F08003A381D0E714
:104BA0000025B3E7A946F5E7A260E6E7A06D01F0AE
:104BB00061F9E7E74FF0FF35BDE700BF04160020BD
:104BC000002310B504468360818119464366C28183
:104BD00008228361C0E90033C0E904335C3001F08E
:104BE0003FF90D4B246263620C4BA3620C4BE362F2
:104BF0000C4B23630C4B9C4206D003F16802944299
:104C000002D0D0339C4205D104F15800BDE81040D9
:104C100001F02EB910BD00BF1D6100083F61000802
:104C2000776100089B610008EC130020024A0349E9
:104C3000034801F041B800BFF8150020CD6000081E
:104C40000816002041680C4B994210B5044601D06B
:104C500001F03CFAA168094B994202D0204601F0CC
:104C600035FAE168064B994204D02046BDE8104071
:104C700001F02CBA10BD00BFEC130020541400202A
:104C8000BC14002010B50B4B04210B4C0B4A2046E2
:104C90001A600022FFF794FF04F168000122092145
:104CA000FFF78EFF04F1D00002221221BDE8104070
:104CB000FFF786BF24150020EC1300202D4C0008C0
:104CC000014801F0D6B800BFB4150020014801F03A
:104CD000D1B800BFB415002010B50446FFF7F0FFAF
:104CE000236A1BB1BDE81040FFF7F0BF044B2362FD
:104CF000044B1B68002BF5D1FFF7C4FFF2E700BFA0
:104D0000454C000824150020024B1868416801F04A
:104D100048BA00BF041600200FB407B5064904AB1B
:104D2000086853F8042B8168019300F0A7F803B0DA
:104D30005DF804EB04B0704704160020024B0146F6
:104D40001868826801F096BA04160020024B0146EA
:104D5000186801F030B800BF0416002038B50023F1
:104D6000064D0446084611462B6000F0E1FE431C48
:104D700002D12B6803B1236038BD00BF301500207D
:104D800038B50023054D044608462B6000F0D5FEDB
:104D9000431C02D12B6803B1236038BD30150020BD
:104DA00070B50D4D00260D4C641BA410A64209D110
:104DB0000B4D00260B4C01F073FF641BA410A642A0
:104DC00005D170BD55F8043B01369847EEE755F81C
:104DD000043B01369847F2E75C1600205C16002081
:104DE0005C1600206016002038B50546002941D029
:104DF00051F8043C0C1F002BB8BFE41800F024FB52
:104E00001D4A136833B9636014602846BDE8384012
:104E100000F020BBA34208D9206821188B4201BFB3
:104E200019685B6809182160EDE71A465B680BB1E9
:104E3000A342FAD911685018A0420BD1206801444E
:104E4000501811608342E0D118685B6808445360D1
:104E50001060DAE702D90C232B60D6E7206821180E
:104E60008B4202BF19685B680918636008BF216044
:104E70005460CAE738BD00BF2C1500202DE9F04F63
:104E80000D469DB014469846064618B1036A0BB904
:104E9000FFF722FF6B6ED90705D4AB899A0502D4C0
:104EA000A86D00F0E6FFAB891B0701D52B699BB904
:104EB0002946304600F0D4FA70B16B6EDC0704D599
:104EC0004FF0FF301DB0BDE8F08FAB899805F7D4E7
:104ED000A86D00F0CFFFF3E70023CDF80C804FF072
:104EE0000109DFF8B481099320238DF8293030239C
:104EF0008DF82A3023469A4613F8012B0AB1252A49
:104F0000F9D1BAEB040B0BD05B462246294630465A
:104F100000F0D5FF013000F0A780099A5A440992A9
:104F20009AF80030002B00F09F8000234FF0FF32F2
:104F30000AF1010A049307938DF853301A93CDE9CF
:104F4000052354460522544814F8011B01F0DEF9EC
:104F5000049AD8B9D10644BF20238DF853301307E3
:104F600044BF2B238DF853309AF800302A2B15D0EC
:104F7000079A544600204FF00A0C214611F8013BD5
:104F8000303B092B4BD9B0B1079214E0A0EB0803DA
:104F9000A24609FA03F313430493D2E7039B191DB6
:104FA0001B68002B0391BBBF5B4242F002020793D8
:104FB0000793B8BF049223782E2B0AD163782A2B4B
:104FC00032D1039B02341A1D1B6843EAE373039238
:104FD0000593DFF8D4A003222178504601F096F91A
:104FE00038B1A0EB0A004022049B013482401343F5
:104FF000049314F8011B062228488DF8281001F0AC
:1050000085F900283FD0264B1BBB039B073323F0B9
:10501000070308330393099B3B4409936AE70CFB9E
:1050200002320C460120A8E7002301344FF00A0C9D
:1050300019460593204610F8012B303A092A03D966
:10504000002BC6D00591C4E70CFB012104460123C7
:10505000F0E703AB2A4604A930460093114BAFF3A7
:1050600000800746781CD6D16B6ED90705D4AB8972
:105070009A0502D4A86D00F0FDFEAB895B063FF5F2
:105080001FAF09981EE703AB2A4604A930460093D8
:10509000044B00F0ADF8E4E76C780008767800087F
:1050A00000000000BF5E000872780008024B014655
:1050B000186800F025B800BF0416002070B50F4E28
:1050C0000C460546316811B900F054FA30602146AB
:1050D000284600F04FFA431C03D14FF0FF3420461E
:1050E00070BDC41C24F00304A042F8D0211A284645
:1050F00000F040FA0130F2D1EFE700BF28150020A0
:105100002DE9F041CD1C064625F0030508350C2D90
:1051100038BF0C25002D01DBA94204D90C233360D4
:105120000020BDE8F081314F00F08EF93B681C464D
:1051300044BB29463046FFF7C1FF431C044650D10B
:105140003C682146002941D1002C44D023683046D8
:1051500004EB030800F00EFA80453CD1216830468C
:105160006D1A2946FFF7AAFF013034D023682B447B
:1051700023603B68002B36D05A68A24229D1002216
:105180005A600EE02268521B1DD40B2A16D96119F1
:10519000A342256018BF5960636808BF3960625137
:1051A0004B60304600F056F904F10B00231D20F04F
:1051B0000700C21AB5D01B1AA350B2E7A342626817
:1051C000DED13A60EDE723466468B1E70C464968F2
:1051D000B8E71346CEE70C233046336000F03AF9C7
:1051E0009EE70560DDE75B60FFDE00BF2C15002059
:1051F0002DE9FF470F7E914680460C46782F9A4650
:105200000C9E01F1430207D8622F0AD8002F00F04C
:10521000DD80582F00F0C38004F1420684F842700C
:105220003AE0A7F16303152BF6D801A151F823F05A
:10523000895200089D5200081952000819520008AE
:1052400019520008195200089D520008195200080E
:10525000195200081952000819520008B3530008E7
:105260002B5300086B53000819520008195200080C
:10527000D5530008195200082B5300081952000892
:10528000195200087353000833681A1D1B683260F6
:1052900004F1420684F842300123A8E03168236813
:1052A000081D30601E0601D50D6803E05D06FBD5C4
:1052B000B1F90050002D616878DA2D200029A16035
:1052C00084F843002DDA6D425D480A231646B5FB8B
:1052D000F3F103FB1157C75D06F8017D2F460D461C
:1052E000BB42F4D9082B0BD12368DF0708D523690B
:1052F00061689942DEBF302306F8013C06F1FF36B3
:10530000921B22614B4603AA21464046CDF800A0DD
:1053100000F0E7FD01306FD14FF0FF3004B0BDE881
:10532000F08723F004032360CDE721683368080683
:1053300053F8045B02D4490648BFADB26F2F336007
:105340003F4814BF0A230823002184F843106668ED
:10535000002EA660BADB216821F004012160002D37
:10536000B4D1002EB2D11646BCE7236843F0200327
:10537000236078273348236884F845701F06316816
:1053800051F8045B02D45F0648BFADB23160D90763
:1053900044BF43F0200323601DB11023D4E7284805
:1053A000E9E7236823F020032360F6E724480A2373
:1053B000CDE733682568181D616930602E061B68CB
:1053C00001D5196002E06806FBD519800023164656
:1053D000236197E7336800211A1D32601E686268F6
:1053E000304600F093FF08B1801B60606368236162
:1053F000002384F8433085E7236932464946404616
:10540000D047013088D023689B0714D4E068039B01
:105410009842B8BF184681E70123324649464046C4
:10542000D04701303FF478AF0135E36803995B1A48
:10543000AB42F1DCEAE7002504F11906F5E700BF0D
:105440007D7800088E780008014800F012BD00BF8A
:10545000B3150020014800F00DBD00BFB3150020BA
:1054600038B5294B05460C46186818B1036A0BB9C4
:10547000FFF732FCB4F90C30190722D4DA0607D44E
:1054800009222A6043F040034FF0FF30A38133E04C
:10549000580712D5616B41B104F14403994202D01F
:1054A0002846FFF7A1FC00236363A38923F02403AC
:1054B000A3810023636023692360A38943F0080369
:1054C000A38123694BB9A38903F42073B3F5007F4B
:1054D00003D02146284600F032FCB4F90C3013F01A
:1054E00001020AD00022A26062695242A2612269CE
:1054F00042B913F08000C5D138BD990758BF626921
:10550000A260F4E70020F7E70416002038B5002376
:10551000054D044608462B6000F007FB431C02D1F2
:105520002B6803B1236038BD3015002038B5044620
:10553000064D0846114600222A601A4600F0FFFA7E
:10554000431C02D12B6803B1236038BD3015002005
:1055500038B50446064D0846114600222A601A4610
:1055600000F0EFFA431C02D12B6803B1236038BD71
:105570003015002038B50023054D044608462B6041
:10558000FFF700F8431C02D12B6803B1236038BD3C
:105590003015002038B50446064D08461146002255
:1055A0002A601A46FEF750FB431C02D12B6803B158
:1055B000236038BD301500208B8903F00903092BC7
:1055C00003D1034B186800F081BD0020704700BF75
:1055D0000416002070B50C46054618B1036A0BB9D5
:1055E000FFF77AFB00236360B4F90C309E0608D401
:1055F000580745D4D90607D409222A6043F040034E
:10560000A3814FF0FF3070BD1A070BD52146284605
:1056100000F05CFD0028F4D1A389A06023F008030A
:10562000A061A381A38943F00403A38123691BB96B
:105630002146284600F083FBB4F90C60B3070FD075
:1056400001231B4A1B491C48A38100F035FBA6819E
:1056500006F00906092E03D12146284600F0B3FCC6
:1056600022692846666A6369216A2260B047002879
:10567000606017DCB4F90C3016D143F02003BFE7AB
:10568000616B0029D2D004F14403994202D028462C
:10569000FFF7AAFB00236363236C6360002BC5D074
:1056A000E36B23600020AEE700226260A6E700BF44
:1056B000F8150020B95500080816002008B500F0BC
:1056C000CCFAFAF7DFFD00F0ECFAFAF74FFEFAE752
:1056D00038B505460C460220FAF706FFFEF79CFF98
:1056E0000120FAF707FFFEF797FF680000F0FE00C1
:1056F000FAF7E8FEC4F30740FAF7E4FEC4F3072024
:10570000FAF7E0FEE0B2FAF7DDFE0120FEF784FFD3
:10571000FAF7EAFEBDE838400A20FEF77DBF70B513
:1057200004460120FAF7E0FEFEF776FF0120FAF7C3
:10573000E1FEFEF771FF600040F00100C0B2FAF731
:10574000C1FE0020FAF7BEFE06460020FAF7BAFEB8
:1057500004460020FAF7B6FE05462402012044EA7A
:105760000644FEF759FFFAF7BFFE44EA050070BD94
:1057700070B50120FAF7BEFEFEF74EFF4320FAF7A0
:10578000A1FE0020FAF79EFE06460020FAF79AFED8
:1057900004460020FAF796FE05462402012044EA5A
:1057A0000644FEF739FF44EA0500FAF79DFE0302BE
:1057B00048BF40F07F4070BD08B50120FFF7AFFF44
:1057C000C0F3C05008BD70477047704770477047BE
:1057D00008B5FAF7FFFF00F028F9BDE80840FAF72E
:1057E000EDBF704708B5FBF761F9FBF715FABDE8A7
:1057F000084000F051B808B500F010F800F00AF8C1
:10580000BDE80840FAF760BF7047704770477047BF
:1058100070477047FAF76ABFFAF7CABF0F207047A0
:1058200070B5002506462C46052C20D8DFE804F08C
:1058300003070B0F13175B210820FBF79DF90C21C1
:105840000820FBF799F9D1210820FBF795F9802171
:105850000820FBF791F900210820FBF78DF96C1C5B
:105860002946E4B208202546FBF786F90624A4F170
:105870000E03012B05D85A210820FBF77DF90134CE
:10588000D2E7102C05D1BDE870405D210820FBF760
:1058900073B9B31F195DEFE708B5082000F025F8CC
:1058A000BDE80840082000F02BB8012307B520F020
:1058B0007F4040EA8170019068460093FFF7B0FF97
:1058C00003B05DF804FBFEE700239A4200D1704765
:1058D00010B550F8234041F8234001339A42F8D1E3
:1058E00010BDFEE70023036070474FF060420123C4
:1058F000D2F8001E83400B430020C2F8003E7047E0
:105900004FF060410122D1F8003E824023EA0203B9
:105910000020C1F8003E704710B588B004460E98CC
:10592000009207900D98224606909DF83000059051
:105930000B9804909DF8280003900020CDE90130D9
:105940000B460121FBF742FA08B010BD70B50546C1
:1059500014460E4601F0CBF82B685C4034405C40A6
:105960002C60BDE8704001F0BDB808B500F014FD32
:10597000BDE808400021FBF78FBF0029CCBF012103
:105980000021FBF789BF02214FF42070FCF7D2BB46
:1059900070477047436D0B42FCD1704708B54368B0
:1059A000DA0714D58368DB0702D50369D90707D561
:1059B0000A2350218363FFF7EDFF836C9A07FCD124
:1059C000012200F500535A6043689B07FCD408BDD0
:1059D000836C5B06FCD541647047836C5A06FCD52A
:1059E0004164836C1B06FCD5C06B80B2704770B5F8
:1059F000054614460E4601F07AF82B685C403440A8
:105A00005C402C60BDE8704001F06CB870B5054694
:105A100014460E4601F06BF82B685C4034405C4045
:105A20002C60BDE8704001F05DB800F000B80020C7
:105A30007047FDF7C5BD70B50C46154610B9FDF7AA
:105A4000C9FF38B143682BB12A462146BDE87040F2
:105A500000681847232070BDF7B50D4616461C4652
:105A600048B103B901ACC7685FB123463246294645
:105A70000068B84706E0FDF7ADFF04B901AC0028A7
:105A8000F1D1232003B0F0BDD0F8A0301B689A6C90
:105A9000120643BFDB6B00200B701B20704738B52C
:105AA0000446D0F8A0301D68AB6C5906FCD5002325
:105AB00094F8A9101A4694F8A800FDF7CFFA00232D
:105AC00094F8AB101A4694F8AA00FDF7C7FA94F8B8
:105AD000B030DA0707D5002394F8AD101A4694F8D1
